{
  "contractName": "SecondHandShop",
  "abi": [
    {
      "inputs": [],
      "payable": false,
      "stateMutability": "nonpayable",
      "type": "constructor"
    },
    {
      "anonymous": false,
      "inputs": [
        {
          "indexed": true,
          "internalType": "address",
          "name": "buyer",
          "type": "address"
        },
        {
          "indexed": false,
          "internalType": "uint256",
          "name": "productId",
          "type": "uint256"
        }
      ],
      "name": "BuyProduct",
      "type": "event"
    },
    {
      "anonymous": false,
      "inputs": [
        {
          "indexed": true,
          "internalType": "address",
          "name": "creater",
          "type": "address"
        },
        {
          "indexed": false,
          "internalType": "uint256",
          "name": "productId",
          "type": "uint256"
        }
      ],
      "name": "CreateProduct",
      "type": "event"
    },
    {
      "anonymous": false,
      "inputs": [
        {
          "indexed": true,
          "internalType": "address",
          "name": "buyer",
          "type": "address"
        },
        {
          "indexed": false,
          "internalType": "uint256",
          "name": "productId",
          "type": "uint256"
        }
      ],
      "name": "ErrorNotEnoughMoney",
      "type": "event"
    },
    {
      "anonymous": false,
      "inputs": [
        {
          "indexed": true,
          "internalType": "address",
          "name": "buyer",
          "type": "address"
        },
        {
          "indexed": false,
          "internalType": "uint256",
          "name": "productId",
          "type": "uint256"
        }
      ],
      "name": "ErrorProductNotAvailable",
      "type": "event"
    },
    {
      "constant": false,
      "inputs": [
        {
          "internalType": "string",
          "name": "_name",
          "type": "string"
        },
        {
          "internalType": "uint256",
          "name": "_price",
          "type": "uint256"
        },
        {
          "internalType": "string",
          "name": "_imgPath",
          "type": "string"
        },
        {
          "internalType": "string",
          "name": "_information",
          "type": "string"
        }
      ],
      "name": "createProduct",
      "outputs": [
        {
          "internalType": "bool",
          "name": "success",
          "type": "bool"
        }
      ],
      "payable": true,
      "stateMutability": "payable",
      "type": "function"
    },
    {
      "constant": true,
      "inputs": [],
      "name": "getAllProductList",
      "outputs": [
        {
          "internalType": "uint256[]",
          "name": "_products",
          "type": "uint256[]"
        }
      ],
      "payable": false,
      "stateMutability": "view",
      "type": "function"
    },
    {
      "constant": true,
      "inputs": [
        {
          "internalType": "uint256",
          "name": "_id",
          "type": "uint256"
        }
      ],
      "name": "getProductStrById",
      "outputs": [
        {
          "internalType": "uint256",
          "name": "id",
          "type": "uint256"
        },
        {
          "internalType": "string",
          "name": "name",
          "type": "string"
        },
        {
          "internalType": "uint256",
          "name": "price",
          "type": "uint256"
        },
        {
          "internalType": "string",
          "name": "status",
          "type": "string"
        },
        {
          "internalType": "address",
          "name": "seller",
          "type": "address"
        },
        {
          "internalType": "address",
          "name": "buyer",
          "type": "address"
        },
        {
          "internalType": "string",
          "name": "imgPath",
          "type": "string"
        },
        {
          "internalType": "string",
          "name": "rating",
          "type": "string"
        },
        {
          "internalType": "string",
          "name": "information",
          "type": "string"
        }
      ],
      "payable": false,
      "stateMutability": "view",
      "type": "function"
    },
    {
      "constant": true,
      "inputs": [],
      "name": "getMyProduct",
      "outputs": [
        {
          "internalType": "uint256[]",
          "name": "product",
          "type": "uint256[]"
        }
      ],
      "payable": false,
      "stateMutability": "view",
      "type": "function"
    },
    {
      "constant": false,
      "inputs": [
        {
          "internalType": "uint256",
          "name": "_productId",
          "type": "uint256"
        },
        {
          "internalType": "string",
          "name": "_rating",
          "type": "string"
        }
      ],
      "name": "buyProduct",
      "outputs": [
        {
          "internalType": "bool",
          "name": "success",
          "type": "bool"
        }
      ],
      "payable": true,
      "stateMutability": "payable",
      "type": "function"
    }
  ],
  "bytecode": "0x60806040523480156200001157600080fd5b506000600381905550620000ce6040518060400160405280600581526020017f576174636800000000000000000000000000000000000000000000000000000081525060056040518060400160405280600981526020017f77617463682e706e6700000000000000000000000000000000000000000000008152506040518060400160405280600881526020017f69576174636820330000000000000000000000000000000000000000000000008152506200018a60201b60201c565b50620001836040518060400160405280600681526020017f43616d657261000000000000000000000000000000000000000000000000000081525060046040518060400160405280600a81526020017f63616d6572612e6a7067000000000000000000000000000000000000000000008152506040518060400160405280600e81526020017f46756a696e6f6e2043616d6572610000000000000000000000000000000000008152506200018a60201b60201c565b5062000a3f565b60006200019d856200082160201b60201c565b15620001e0576040517f08c379a0000000000000000000000000000000000000000000000000000000008152600401620001d790620009e5565b60405180910390fd5b6000620001f26200084960201b60201c565b9050620001fe6200085f565b600160008381526020019081526020016000206040518061012001604052908160008201548152602001600182018054600181600116156101000203166002900480601f016020809104026020016040519081016040528092919081815260200182805460018160011615610100020316600290048015620002c45780601f106200029857610100808354040283529160200191620002c4565b820191906000526020600020905b815481529060010190602001808311620002a657829003601f168201915b50505050508152602001600282015481526020016003820160009054906101000a900460ff166002811115620002f657fe5b60028111156200030257fe5b81526020016003820160019054906101000a900473ffffffffffffffffffffffffffffffffffffffff1673ffffffffffffffffffffffffffffffffffffffff1673ffffffffffffffffffffffffffffffffffffffff1681526020016004820160009054906101000a900473ffffffffffffffffffffffffffffffffffffffff1673ffffffffffffffffffffffffffffffffffffffff1673ffffffffffffffffffffffffffffffffffffffff168152602001600582018054600181600116156101000203166002900480601f0160208091040260200160405190810160405280929190818152602001828054600181600116156101000203166002900480156200044f5780601f1062000423576101008083540402835291602001916200044f565b820191906000526020600020905b8154815290600101906020018083116200043157829003601f168201915b50505050508152602001600682018054600181600116156101000203166002900480601f016020809104026020016040519081016040528092919081815260200182805460018160011615610100020316600290048015620004f55780601f10620004c957610100808354040283529160200191620004f5565b820191906000526020600020905b815481529060010190602001808311620004d757829003601f168201915b50505050508152602001600782018054600181600116156101000203166002900480601f0160208091040260200160405190810160405280929190818152602001828054600181600116156101000203166002900480156200059b5780601f106200056f576101008083540402835291602001916200059b565b820191906000526020600020905b8154815290600101906020018083116200057d57829003601f168201915b5050505050815250509050818160000181815250508681602001819052508381610100018190525085816040018181525050600081606001906002811115620005e057fe5b90816002811115620005ee57fe5b8152505033816080019073ffffffffffffffffffffffffffffffffffffffff16908173ffffffffffffffffffffffffffffffffffffffff1681525050848160c0018190525080600160008481526020019081526020016000206000820151816000015560208201518160010190805190602001906200066f929190620008e3565b506040820151816002015560608201518160030160006101000a81548160ff021916908360028111156200069f57fe5b021790555060808201518160030160016101000a81548173ffffffffffffffffffffffffffffffffffffffff021916908373ffffffffffffffffffffffffffffffffffffffff16021790555060a08201518160040160006101000a81548173ffffffffffffffffffffffffffffffffffffffff021916908373ffffffffffffffffffffffffffffffffffffffff16021790555060c082015181600501908051906020019062000750929190620008e3565b5060e08201518160060190805190602001906200076f929190620008e3565b506101008201518160070190805190602001906200078f929190620008e3565b5090505060028290806001815401808255809150509060018203906000526020600020016000909192909190915055503373ffffffffffffffffffffffffffffffffffffffff167fa697e8e55f21bbd270dd6e8c93e1f1b6dba7c9b295d42b1d2546e97024798a4d82600001516040516200080b919062000a07565b60405180910390a2600192505050949350505050565b600060608290506000815114156200083e57600191505062000844565b60009150505b919050565b6000600360008154600101919050819055905090565b604051806101200160405280600081526020016060815260200160008152602001600060028111156200088e57fe5b8152602001600073ffffffffffffffffffffffffffffffffffffffff168152602001600073ffffffffffffffffffffffffffffffffffffffff1681526020016060815260200160608152602001606081525090565b828054600181600116156101000203166002900490600052602060002090601f016020900481019282601f106200092657805160ff191683800117855562000957565b8280016001018555821562000957579182015b828111156200095657825182559160200191906001019062000939565b5b5090506200096691906200096a565b5090565b6200098f91905b808211156200098b57600081600090555060010162000971565b5090565b90565b6000620009a160148362000a24565b91507f4e616d65206d757374206e6f7420656d7074792e0000000000000000000000006000830152602082019050919050565b620009df8162000a35565b82525050565b6000602082019050818103600083015262000a008162000992565b9050919050565b600060208201905062000a1e6000830184620009d4565b92915050565b600082825260208201905092915050565b6000819050919050565b611c8e8062000a4f6000396000f3fe60806040526004361061004a5760003560e01c806307877cff1461004f578063500ce6b41461007f5780636bc65778146100af578063b810bebb146100da578063f9de823e1461011f575b600080fd5b61006960048036036100649190810190611770565b61014a565b60405161007691906119e5565b60405180910390f35b61009960048036036100949190810190611844565b6107ad565b6040516100a691906119e5565b60405180910390f35b3480156100bb57600080fd5b506100c4610bb2565b6040516100d191906119c3565b60405180910390f35b3480156100e657600080fd5b5061010160048036036100fc919081019061181b565b610c0a565b60405161011699989796959493929190611a3b565b60405180910390f35b34801561012b57600080fd5b5061013461116c565b60405161014191906119c3565b60405180910390f35b600061015585611200565b15610195576040517f08c379a000000000000000000000000000000000000000000000000000000000815260040161018c90611a00565b60405180910390fd5b600061019f611226565b90506101a96115df565b600160008381526020019081526020016000206040518061012001604052908160008201548152602001600182018054600181600116156101000203166002900480601f01602080910402602001604051908101604052809291908181526020018280546001816001161561010002031660029004801561026b5780601f106102405761010080835404028352916020019161026b565b820191906000526020600020905b81548152906001019060200180831161024e57829003601f168201915b50505050508152602001600282015481526020016003820160009054906101000a900460ff16600281111561029c57fe5b60028111156102a757fe5b81526020016003820160019054906101000a900473ffffffffffffffffffffffffffffffffffffffff1673ffffffffffffffffffffffffffffffffffffffff1673ffffffffffffffffffffffffffffffffffffffff1681526020016004820160009054906101000a900473ffffffffffffffffffffffffffffffffffffffff1673ffffffffffffffffffffffffffffffffffffffff1673ffffffffffffffffffffffffffffffffffffffff168152602001600582018054600181600116156101000203166002900480601f0160208091040260200160405190810160405280929190818152602001828054600181600116156101000203166002900480156103f05780601f106103c5576101008083540402835291602001916103f0565b820191906000526020600020905b8154815290600101906020018083116103d357829003601f168201915b50505050508152602001600682018054600181600116156101000203166002900480601f0160208091040260200160405190810160405280929190818152602001828054600181600116156101000203166002900480156104925780601f1061046757610100808354040283529160200191610492565b820191906000526020600020905b81548152906001019060200180831161047557829003601f168201915b50505050508152602001600782018054600181600116156101000203166002900480601f0160208091040260200160405190810160405280929190818152602001828054600181600116156101000203166002900480156105345780601f1061050957610100808354040283529160200191610534565b820191906000526020600020905b81548152906001019060200180831161051757829003601f168201915b505050505081525050905081816000018181525050868160200181905250838161010001819052508581604001818152505060008160600190600281111561057857fe5b9081600281111561058557fe5b8152505033816080019073ffffffffffffffffffffffffffffffffffffffff16908173ffffffffffffffffffffffffffffffffffffffff1681525050848160c001819052508060016000848152602001908152602001600020600082015181600001556020820151816001019080519060200190610604929190611662565b506040820151816002015560608201518160030160006101000a81548160ff0219169083600281111561063357fe5b021790555060808201518160030160016101000a81548173ffffffffffffffffffffffffffffffffffffffff021916908373ffffffffffffffffffffffffffffffffffffffff16021790555060a08201518160040160006101000a81548173ffffffffffffffffffffffffffffffffffffffff021916908373ffffffffffffffffffffffffffffffffffffffff16021790555060c08201518160050190805190602001906106e2929190611662565b5060e08201518160060190805190602001906106ff929190611662565b5061010082015181600701908051906020019061071d929190611662565b5090505060028290806001815401808255809150509060018203906000526020600020016000909192909190915055503373ffffffffffffffffffffffffffffffffffffffff167fa697e8e55f21bbd270dd6e8c93e1f1b6dba7c9b295d42b1d2546e97024798a4d82600001516040516107979190611a20565b60405180910390a2600192505050949350505050565b60006107b76115df565b6107c08461123c565b9050600060028111156107cf57fe5b816060015160028111156107df57fe5b14610883573373ffffffffffffffffffffffffffffffffffffffff167f4bd0fce518a5f8d53a4439ce0564791c0b29c6015a0c26a282d418fa9d8913f88560405161082a9190611a20565b60405180910390a23373ffffffffffffffffffffffffffffffffffffffff166108fc349081150290604051600060405180830381858888f19350505050158015610878573d6000803e3d6000fd5b506000915050610bac565b8060400151341161092d573373ffffffffffffffffffffffffffffffffffffffff167f322d163407312522081c1cd5ba179e18663bc4c6aa41ba610a904ed8e8f993f6856040516108d49190611a20565b60405180910390a23373ffffffffffffffffffffffffffffffffffffffff166108fc349081150290604051600060405180830381858888f19350505050158015610922573d6000803e3d6000fd5b506000915050610bac565b338160a0019073ffffffffffffffffffffffffffffffffffffffff16908173ffffffffffffffffffffffffffffffffffffffff1681525050828160e0018190525060018160600190600281111561098057fe5b9081600281111561098d57fe5b8152505080600160008681526020019081526020016000206000820151816000015560208201518160010190805190602001906109cb929190611662565b506040820151816002015560608201518160030160006101000a81548160ff021916908360028111156109fa57fe5b021790555060808201518160030160016101000a81548173ffffffffffffffffffffffffffffffffffffffff021916908373ffffffffffffffffffffffffffffffffffffffff16021790555060a08201518160040160006101000a81548173ffffffffffffffffffffffffffffffffffffffff021916908373ffffffffffffffffffffffffffffffffffffffff16021790555060c0820151816005019080519060200190610aa9929190611662565b5060e0820151816006019080519060200190610ac6929190611662565b50610100820151816007019080519060200190610ae4929190611662565b509050506000803373ffffffffffffffffffffffffffffffffffffffff1673ffffffffffffffffffffffffffffffffffffffff168152602001908152602001600020816000015190806001815401808255809150509060018203906000526020600020016000909192909190915055503373ffffffffffffffffffffffffffffffffffffffff167f4e27ad718a3aeaf5e7b7daafb55c3143953e2c699a49882ea99adae9326181478260000151604051610b9e9190611a20565b60405180910390a260019150505b92915050565b60606002805480602002602001604051908101604052809291908181526020018280548015610c0057602002820191906000526020600020905b815481526020019060010190808311610bec575b5050505050905090565b60006060600060606000806060806060610c226115df565b600160008c81526020019081526020016000206040518061012001604052908160008201548152602001600182018054600181600116156101000203166002900480601f016020809104026020016040519081016040528092919081815260200182805460018160011615610100020316600290048015610ce45780601f10610cb957610100808354040283529160200191610ce4565b820191906000526020600020905b815481529060010190602001808311610cc757829003601f168201915b50505050508152602001600282015481526020016003820160009054906101000a900460ff166002811115610d1557fe5b6002811115610d2057fe5b81526020016003820160019054906101000a900473ffffffffffffffffffffffffffffffffffffffff1673ffffffffffffffffffffffffffffffffffffffff1673ffffffffffffffffffffffffffffffffffffffff1681526020016004820160009054906101000a900473ffffffffffffffffffffffffffffffffffffffff1673ffffffffffffffffffffffffffffffffffffffff1673ffffffffffffffffffffffffffffffffffffffff168152602001600582018054600181600116156101000203166002900480601f016020809104026020016040519081016040528092919081815260200182805460018160011615610100020316600290048015610e695780601f10610e3e57610100808354040283529160200191610e69565b820191906000526020600020905b815481529060010190602001808311610e4c57829003601f168201915b50505050508152602001600682018054600181600116156101000203166002900480601f016020809104026020016040519081016040528092919081815260200182805460018160011615610100020316600290048015610f0b5780601f10610ee057610100808354040283529160200191610f0b565b820191906000526020600020905b815481529060010190602001808311610eee57829003601f168201915b50505050508152602001600782018054600181600116156101000203166002900480601f016020809104026020016040519081016040528092919081815260200182805460018160011615610100020316600290048015610fad5780601f10610f8257610100808354040283529160200191610fad565b820191906000526020600020905b815481529060010190602001808311610f9057829003601f168201915b5050505050815250509050606060006002811115610fc757fe5b82606001516002811115610fd757fe5b141561101a576040518060400160405280600981526020017f417661696c61626c6500000000000000000000000000000000000000000000008152509050611115565b6001600281111561102757fe5b8260600151600281111561103757fe5b141561107a576040518060400160405280600981526020017f50757263686173656400000000000000000000000000000000000000000000008152509050611114565b6001600281111561108757fe5b8260600151600281111561109757fe5b14156110da576040518060400160405280600b81526020017f556e617661696c61626c650000000000000000000000000000000000000000008152509050611113565b6040518060400160405280600781526020017f756e6e616d65640000000000000000000000000000000000000000000000000081525090505b5b5b8160000151826020015183604001518385608001518660a001518760c001518860e001518961010001518797508292508191508090509a509a509a509a509a509a509a509a509a5050509193959799909294969850565b60606000803373ffffffffffffffffffffffffffffffffffffffff1673ffffffffffffffffffffffffffffffffffffffff1681526020019081526020016000208054806020026020016040519081016040528092919081815260200182805480156111f657602002820191906000526020600020905b8154815260200190600101908083116111e2575b5050505050905090565b6000606082905060008151141561121b576001915050611221565b60009150505b919050565b6000600360008154600101919050819055905090565b6112446115df565b600160008381526020019081526020016000206040518061012001604052908160008201548152602001600182018054600181600116156101000203166002900480601f0160208091040260200160405190810160405280929190818152602001828054600181600116156101000203166002900480156113065780601f106112db57610100808354040283529160200191611306565b820191906000526020600020905b8154815290600101906020018083116112e957829003601f168201915b50505050508152602001600282015481526020016003820160009054906101000a900460ff16600281111561133757fe5b600281111561134257fe5b81526020016003820160019054906101000a900473ffffffffffffffffffffffffffffffffffffffff1673ffffffffffffffffffffffffffffffffffffffff1673ffffffffffffffffffffffffffffffffffffffff1681526020016004820160009054906101000a900473ffffffffffffffffffffffffffffffffffffffff1673ffffffffffffffffffffffffffffffffffffffff1673ffffffffffffffffffffffffffffffffffffffff168152602001600582018054600181600116156101000203166002900480601f01602080910402602001604051908101604052809291908181526020018280546001816001161561010002031660029004801561148b5780601f106114605761010080835404028352916020019161148b565b820191906000526020600020905b81548152906001019060200180831161146e57829003601f168201915b50505050508152602001600682018054600181600116156101000203166002900480601f01602080910402602001604051908101604052809291908181526020018280546001816001161561010002031660029004801561152d5780601f106115025761010080835404028352916020019161152d565b820191906000526020600020905b81548152906001019060200180831161151057829003601f168201915b50505050508152602001600782018054600181600116156101000203166002900480601f0160208091040260200160405190810160405280929190818152602001828054600181600116156101000203166002900480156115cf5780601f106115a4576101008083540402835291602001916115cf565b820191906000526020600020905b8154815290600101906020018083116115b257829003601f168201915b5050505050815250509050919050565b6040518061012001604052806000815260200160608152602001600081526020016000600281111561160d57fe5b8152602001600073ffffffffffffffffffffffffffffffffffffffff168152602001600073ffffffffffffffffffffffffffffffffffffffff1681526020016060815260200160608152602001606081525090565b828054600181600116156101000203166002900490600052602060002090601f016020900481019282601f106116a357805160ff19168380011785556116d1565b828001600101855582156116d1579182015b828111156116d05782518255916020019190600101906116b5565b5b5090506116de91906116e2565b5090565b61170491905b808211156117005760008160009055506001016116e8565b5090565b90565b600082601f83011261171857600080fd5b813561172b61172682611b18565b611aeb565b9150808252602083016020830185838301111561174757600080fd5b611752838284611be1565b50505092915050565b60008135905061176a81611c34565b92915050565b6000806000806080858703121561178657600080fd5b600085013567ffffffffffffffff8111156117a057600080fd5b6117ac87828801611707565b94505060206117bd8782880161175b565b935050604085013567ffffffffffffffff8111156117da57600080fd5b6117e687828801611707565b925050606085013567ffffffffffffffff81111561180357600080fd5b61180f87828801611707565b91505092959194509250565b60006020828403121561182d57600080fd5b600061183b8482850161175b565b91505092915050565b6000806040838503121561185757600080fd5b60006118658582860161175b565b925050602083013567ffffffffffffffff81111561188257600080fd5b61188e85828601611707565b9150509250929050565b60006118a483836119a5565b60208301905092915050565b6118b981611b99565b82525050565b60006118ca82611b54565b6118d48185611b77565b93506118df83611b44565b8060005b838110156119105781516118f78882611898565b975061190283611b6a565b9250506001810190506118e3565b5085935050505092915050565b61192681611bab565b82525050565b600061193782611b5f565b6119418185611b88565b9350611951818560208601611bf0565b61195a81611c23565b840191505092915050565b6000611972601483611b88565b91507f4e616d65206d757374206e6f7420656d7074792e0000000000000000000000006000830152602082019050919050565b6119ae81611bd7565b82525050565b6119bd81611bd7565b82525050565b600060208201905081810360008301526119dd81846118bf565b905092915050565b60006020820190506119fa600083018461191d565b92915050565b60006020820190508181036000830152611a1981611965565b9050919050565b6000602082019050611a3560008301846119b4565b92915050565b600061012082019050611a51600083018c6119b4565b8181036020830152611a63818b61192c565b9050611a72604083018a6119b4565b8181036060830152611a84818961192c565b9050611a9360808301886118b0565b611aa060a08301876118b0565b81810360c0830152611ab2818661192c565b905081810360e0830152611ac6818561192c565b9050818103610100830152611adb818461192c565b90509a9950505050505050505050565b6000604051905081810181811067ffffffffffffffff82111715611b0e57600080fd5b8060405250919050565b600067ffffffffffffffff821115611b2f57600080fd5b601f19601f8301169050602081019050919050565b6000819050602082019050919050565b600081519050919050565b600081519050919050565b6000602082019050919050565b600082825260208201905092915050565b600082825260208201905092915050565b6000611ba482611bb7565b9050919050565b60008115159050919050565b600073ffffffffffffffffffffffffffffffffffffffff82169050919050565b6000819050919050565b82818337600083830152505050565b60005b83811015611c0e578082015181840152602081019050611bf3565b83811115611c1d576000848401525b50505050565b6000601f19601f8301169050919050565b611c3d81611bd7565b8114611c4857600080fd5b5056fea365627a7a7231582052d49ab320a59a050f686f9eebf6b840d9b817e61821803398caf615d18e969f6c6578706572696d656e74616cf564736f6c63430005100040",
  "source": "pragma solidity 0.5.16;\npragma experimental ABIEncoderV2;\n\ncontract SecondHandShop {\n    \n    event BuyProduct(address indexed buyer, uint256 productId); // Event\n    event CreateProduct(address indexed creater, uint256 productId); // Event\n    event ErrorProductNotAvailable(address indexed buyer, uint256 productId); // Event\n    event ErrorNotEnoughMoney(address indexed buyer, uint256 productId); // Event\n    \n    struct Product {\n        uint256 id;\n        string name;\n        uint256 price;\n        ProductStatus productStatus;\n        address seller;\n        address buyer;\n        string imgPath;\n        string rating;\n        string information;\n    }\n    \n    enum ProductStatus {Available,Purchased,Unavailable}\n    // presonal product have been purchase\n    mapping (address => uint256[]) private userProducts;\n    // product storage\n    mapping(uint256 => Product) products;\n    uint256[] productList;\n    \n    constructor() public {\n        productCounter = 0;\n        createProduct(\"Watch\",5.0,\"watch.png\",'iWatch 3');\n        createProduct(\"Camera\",4.0,\"camera.jpg\",'Fujinon Camera');\n    }\n\n    uint256 productCounter;\n    function getProductId() private returns(uint) { return ++productCounter; }\n    \n    function isEmpty(string memory _str) pure private returns(bool _isEmpty){\n        bytes memory tempEmptyStringTest = bytes(_str); // Uses memory\n        if (tempEmptyStringTest.length == 0) {\n            return true;\n        } else {\n            return false;\n        }\n    }\n    \n    function createProduct (string memory _name,uint256 _price,string memory _imgPath,string memory _information) public payable returns(bool success) {\n        require(!isEmpty(_name),\"Name must not empty.\");\n        uint256 productId = getProductId();\n        Product memory product = products[productId];\n        product.id = productId;\n        product.name = _name;\n        product.information = _information;\n        product.price = _price;\n        product.productStatus = SecondHandShop.ProductStatus.Available;\n        product.seller = msg.sender;\n        product.imgPath = _imgPath;\n        products[productId] = product;\n        \n        productList.push(productId);\n        emit CreateProduct(msg.sender, product.id);\n        return true;\n    }\n    \n    function getAllProductList() public view returns(uint256[] memory _products){\n        return productList;\n    }\n    \n    function getProductById(uint256 _id) private view returns(Product memory product){\n        return products[_id];\n    }\n    \n    function getProductStrById(uint256 _id) public view returns(uint256 id,string memory name, uint256 price,string memory status,address seller,address buyer,string memory imgPath,string memory rating,string memory information ){\n        Product memory c = products[_id];\n        string memory statusTemp;\n        if(c.productStatus == ProductStatus.Available){\n            statusTemp = \"Available\";\n        }else if(c.productStatus == ProductStatus.Purchased){\n            statusTemp = \"Purchased\";\n        }else if(c.productStatus == ProductStatus.Purchased){\n            statusTemp = \"Unavailable\";\n        }else{\n            statusTemp = \"unnamed\";\n        }\n\n        return (c.id,c.name,c.price,statusTemp,c.seller,c.buyer,c.imgPath,c.rating,c.information);\n    }\n    \n    function getMyProduct() public view returns(uint256[] memory product){\n        return userProducts[msg.sender];\n    }\n    \n    function buyProduct (uint256 _productId, string memory _rating) public payable returns(bool success){\n        Product memory c = getProductById(_productId);\n        if(c.productStatus != ProductStatus.Available){\n            emit ErrorProductNotAvailable(msg.sender,_productId);\n            msg.sender.transfer(msg.value);\n            return false;\n        }\n        if(msg.value <= c.price){\n            emit ErrorNotEnoughMoney(msg.sender,_productId);\n            msg.sender.transfer(msg.value);\n            return false;\n        }\n        \n        c.buyer = msg.sender;\n        c.rating = _rating;\n        c.productStatus = SecondHandShop.ProductStatus.Purchased;\n        products[_productId] = c;\n        userProducts[msg.sender].push(c.id);\n        emit BuyProduct(msg.sender,c.id);\n        return true;\n    }\n}\n",
  "sourcePath": "/home/lihao/Documents/test/truffle/contracts/SecondHandShop.sol",
  "compiler": {
    "name": "solc",
    "version": "0.5.16+commit.9c3226ce.Emscripten.clang"
  },
  "schemaVersion": "3.1.0",
  "updatedAt": "2020-05-15T12:11:27.189Z",
  "networkType": "ethereum",
  "devdoc": {
    "methods": {}
  },
  "userdoc": {
    "methods": {}
  }
}